:100000000C942A000C943C000C943C000C943C0092
:100010000C943C000C943C000C943C000C943C0070
:100020000C943C000C943C000C943C000C943C0060
:100030000C943C000C943C000C943C000C943C0050
:100040000C943C000C943C000C943C000C943C0040
:100050000C943C0011241FBECFE5D4E0DEBFCDBF21
:1000600010E0A0E6B0E001C01D92A136B107E1F7B3
:100070000E944E000C945C000C94000087E689B945
:1000800010BC88E18AB986E880BD08955F9BFECFE9
:100090008CB108955D9BFECF8CB9089587E689B930
:1000A00010BC88E18AB986E880BD5F9BFECF8CB129
:0C00B0005D9BFECF8CB9F9CFF894FFCF18
:00000001FF
