:100000000C942A000C9447000C9447000C94470071
:100010000C9447000C9447000C9447000C94470044
:100020000C9447000C9447000C9447000C94470034
:100030000C9447000C9447000C9447000C94470024
:100040000C9447000C9447000C9447000C94470014
:100050000C94470011241FBECFE5D4E0DEBFCDBF16
:1000600010E0A0E6B0E0EEE2F9E002C005900D92EB
:10007000A836B107D9F710E0A8E6B0E001C01D929C
:10008000A836B107E1F70E9451010C9495040C9435
:100090000000982F907F98BBC098C198C29AEFE952
:1000A000FFE03197F1F700C00000C298EFE9FFE0F0
:1000B0003197F1F700C0000090E082959295907F13
:1000C0009827807F982788BBC098C198C29A8FE9EB
:1000D0009FE00197F1F700C00000C298EFE9FFE050
:1000E0003197F1F700C000000895982F907F98BBDA
:1000F000C09AC198C29AEFE9FFE03197F1F700C0CA
:100100000000C298EFE9FFE03197F1F700C000006E
:1001100090E082959295907F9827807F982788BB62
:10012000C09AC198C29A8FE99FE00197F1F700C089
:100130000000C298EFE9FFE03197F1F700C000003E
:10014000089581E00E944900089582E00E944900DC
:100150000895646021E030E002C0220F331F8A95C9
:10016000E2F7862F822B0E9449000895880F880F9E
:10017000482B4860862F880F842B0E9449000895E1
:10018000880F880F880F8061660F660F862B0E948C
:10019000490008958295807F8062660F660F660F22
:1001A000682B842F880F880F862B0E9449000895A2
:1001B00080E061E040E00E94CA000E94A10081E06E
:1001C00061E041E00E94B60081E060E00E94A90089
:1001D000089580680E94490008950F931F93CF935C
:1001E000DF93E82FF92FDF010D900020E9F7119739
:1001F0000A2F081B49F0C82FD92F10E089910E94BF
:1002000075001F5F1017D0F3DF91CF911F910F91F1
:1002100008950F931F93CF93DF93CDB7DEB72A973F
:100220000FB6F894DEBF0FBECDBF00D000D000D017
:10023000EDB7FEB731968E010F5F1F4FADB7BEB75A
:1002400012961C930E93119720E630E0338322839D
:10025000958384830E94BE018DB79EB706960FB624
:10026000F8949EBF0FBE8DBFC8010E94ED002A9674
:100270000FB6F894DEBF0FBECDBFDF91CF911F91B7
:100280000F910895C82F8FEF94E3ACE08150904018
:10029000A040E1F700C0000081E06C2F0E94C00088
:1002A000F2CF8FEF81BB84BB8FB5816F8FBD8EB5D1
:1002B0008D608EBD86B1876886B987B1806687B943
:1002C000C0E00F2EF3E6CF2EF0E0DF2EF02D0F2E44
:1002D000F5E6AF2EF0E0BF2EF02D0E94D800369A42
:1002E00087B18F5F87B9369B04C0F5B00C2F369964
:1002F000FCCF369A369B04C015B1DC2F3699FCCF63
:1003000087B1815087B9C6010E94ED008FEF93EC51
:10031000A9E081509040A040E1F700C000000E9499
:10032000A1008F2D902F0E9409018FEF93ECA9E07F
:1003300081509040A040E1F700C000000E94A10061
:10034000C5010E94ED008FEF93ECA9E08150904031
:10035000A040E1F700C000000E94A100812F9D2F66
:100360000E9409018FEF93ECA9E081509040A040DA
:10037000E1F700C000000E94A100AFCFAEE0B0E006
:10038000E4ECF1E00C946C040D891E8986E08C830A
:100390001A8309838FEF9FE79E838D83AE01475EAB
:1003A0005F4FCE0101966F89788D0E94E001EF8149
:1003B000F885E00FF11F10822E96E4E00C9488047B
:1003C000ADE0B0E0E6EEF1E00C945E043C017D8728
:1003D0006C875A01FC0117821682838181FFC8C194
:1003E0002E010894411C511CF3019381EC85FD857D
:1003F00093FD859193FF8191FD87EC87882309F414
:10040000B3C1853241F493FD859193FF8191FD87BE
:10041000EC87853229F490E0B3010E94D403E4CF45
:10042000FF24EE2410E01032B0F48B3269F08C32ED
:1004300028F4803251F0833271F40BC08D3239F0E0
:10044000803349F411602CC01260146029C0186018
:1004500027C0106125C017FD2EC0282F20532A3039
:1004600098F416FF08C08F2D880FF82EFF0CFF0C94
:10047000F80EF20E15C08E2D880FE82EEE0CEE0C45
:10048000E80EE20E10620CC08E3221F416FD6CC133
:10049000106406C08C3611F4106802C0883659F416
:1004A000EC85FD8593FD859193FF8191FD87EC8718
:1004B000882309F0B8CF982F9554933018F09052B4
:1004C000933038F424E030E0A20EB31E3FE33983CA
:1004D0000FC0833631F0833781F0833509F05AC07D
:1004E00022C0F5018081898322E030E0A20EB31E94
:1004F00021E0C22ED12C420114C092E0292E312CD1
:100500002A0C3B1CF5018080918016FF03C06F2DE3
:1005100070E002C06FEF7FEFC4010E94C9036C015D
:1005200051011F7715C082E0282E312C2A0C3B1C6C
:10053000F5018080918016FF03C06F2D70E002C02E
:100540006FEF7FEFC4010E94BE036C011068510180
:1005500013FD1CC006C080E290E0B3010E94D403EA
:10056000EA948E2D90E0C816D906A8F30FC0F401C6
:1005700017FD859117FF81914F0190E0B3010E9413
:10058000D403E110EA940894C108D108C114D1043D
:1005900071F7E7C0843611F0893651F5F50117FF80
:1005A00007C080819181A281B38124E030E008C03E
:1005B00080819181AA2797FDA095BA2F22E030E093
:1005C000A20EB31E012F0F76B7FF08C0B095A095FD
:1005D000909581959F4FAF4FBF4F0068BC01CD01F3
:1005E000A2012AE030E00E940004D82ED4183FC0B7
:1005F000853721F41F7E2AE030E020C0197F8F3636
:10060000A9F0803720F4883509F0AEC00BC08037E0
:1006100021F0883709F0A8C001C0106114FF09C09B
:10062000146007C014FF08C0166006C028E030E060
:1006300005C020E130E002C020E132E0F50117FF03
:1006400007C0608171818281938144E050E006C0DF
:100650006081718180E090E042E050E0A40EB51E20
:10066000A2010E940004D82ED418012F0F7706FF94
:1006700009C00E7FDF1430F404FF06C002FD04C081
:100680000F7E02C01D2D01C01F2D802F90E004FFA2
:100690000CC0FE01ED0DF11D2081203311F4097E07
:1006A00009C002FF06C01E5F05C0867890700097E3
:1006B00009F01F5F802E992403FD12C000FF0DC0BA
:1006C000FD2C1E1550F4FE0CF11A1E2D06C080E202
:1006D00090E0B3010E94D4031F5F1E15C0F304C055
:1006E0001E1510F4E11A01C0EE2484FE0FC080E351
:1006F00090E0B3010E94D40382FE1FC081FE03C0BC
:1007000088E590E010C088E790E00DC0C4018678CD
:100710009070009791F081FC02C080E201C08BE2F2
:1007200007FD8DE290E0B3010E94D40306C080E390
:1007300090E0B3010E94D403FA94DF14C0F3DA947A
:10074000F201ED0DF11D808190E0B3010E94D40310
:10075000DD20A9F706C080E290E0B3010E94D40337
:10076000EA94EE20C1F740CEF3018681978102C062
:100770008FEF9FEF2D96E2E10C947A04FC01059037
:10078000615070400110D8F7809590958E0F9F1F93
:100790000895FC016150704001900110D8F78095D8
:1007A00090958E0F9F1F08950F931F93CF93DF9304
:1007B0008C01EB018B8181FF1BC082FF0DC02E815C
:1007C0003F818C819D812817390764F4E881F98184
:1007D0000193F983E88306C0E885F985802F0995A0
:1007E000009731F48E819F8101969F838E8302C092
:1007F0000FEF1FEFC801DF91CF911F910F91089567
:10080000FA01AA27283051F1203181F1E8946F9341
:100810006E7F6E5F7F4F8F4F9F4FAF4FB1E03ED0E7
:10082000B4E03CD0670F781F891F9A1FA11D680F85
:10083000791F8A1F911DA11D6A0F711D811D911DB8
:10084000A11D20D009F468943F912AE0269F11242D
:100850003019305D3193DEF6CF010895462F477091
:10086000405D4193B3E00FD0C9F7F6CF462F4F70EC
:10087000405D4A3318F0495D31FD4052419302D04A
:10088000A9F7EACFB4E0A6959795879577956795F0
:10089000BA95C9F700976105710508959B01AC01F0
:1008A0000A2E06945795479537952795BA95C9F717
:1008B000620F731F841F951FA01D08952F923F92F2
:1008C0004F925F926F927F928F929F92AF92BF9260
:1008D000CF92DF92EF92FF920F931F93CF93DF930C
:1008E000CDB7DEB7CA1BDB0B0FB6F894DEBF0FBE69
:1008F000CDBF09942A88398848885F846E847D84B6
:100900008C849B84AA84B984C884DF80EE80FD80B7
:100910000C811B81AA81B981CE0FD11D0FB6F8942D
:0E092000DEBF0FBECDBFED010895F894FFCFEE
:08092E00256400610062000075
:00000001FF
