:100000000C942A000C9447000C9447000C94470071
:100010000C9447000C9447000C9447000C94470044
:100020000C9447000C9447000C9447000C94470034
:100030000C9447000C9447000C9447000C94470024
:100040000C9447000C9447000C9447000C94470014
:100050000C94470011241FBECFE5D4E0DEBFCDBF16
:1000600010E0A0E6B0E0E8EFF0E002C005900D92ED
:10007000A036B107D9F710E0A0E6B0E001C01D92AC
:10008000A036B107E1F70E9449000C947A000C9465
:1000900000001ABA8FEF87BB88E088BB3E9A86B112
:1000A000876886B983B7896683BFFEEFE0EC70E8A6
:1000B00060E4369A3699FECF84B195B19C0141E057
:1000C0008A39940714F46CBFF4CFAC014B595140FA
:1000D0004B3C510510F47CBFECCF865692408D3CD2
:1000E000910510F4ECBFE5CF83E0233338070CF320
:0800F000FCBFDFCFF894FFCF45
:00000001FF
