:1000000012C02CC02BC02AC029C028C027C026C0BF
:1000100025C024C023C022C021C020C01FC01EC0D4
:100020001DC01CC01BC011241FBECFE5D4E0DEBF25
:10003000CDBF10E0A0E6B0E0E6EFF9E002C0059029
:100040000D92A439B107D9F710E0A4E9B0E001C0DE
:100050001D92AA39B107E1F7EED0CBC4D1CF662308
:1000600011F0909A01C0909891988C9A8D9A8E9ADE
:100070008F9A979896989598949887FD979A86FD69
:10008000969A85FD959A84FD949A929A00C09298CA
:10009000979896989598949883FD979A82FD969A4A
:1000A00081FD959A80FD949A929A00C09298949AB4
:1000B000959A969A979A0895882311F0909A01C07C
:1000C0009098919A8C988D988E988F98929A00C05B
:1000D000849B02C080E101C080E08599806286999E
:1000E000806487998068929800C0929A00C0849931
:1000F00081608599826086998460879988609298EA
:10010000089580E0D9DF87FDFCCF00C080E0D4DF18
:1001100008951F93182FF5DF812F60E0A0DF1F9156
:1001200008951F93182FEDDF812F61E098DF1F9155
:100130000895662311F4805801C08054EADF0895C1
:10014000E0DF90E0089581E0E4DF089582E0E1DF00
:1001500008951F93182FD5DF1A3041F4803410F022
:1001600080E001C080E48058D4DF03C0812F61E0CB
:1001700076DF1F910895CF93DF93EC0101C0E9DF93
:1001800089918823E1F7DF91CF910895CF93DF9391
:10019000EC0101C0DEDFFE01219684918823D1F7B6
:1001A000DF91CF9108951F93182F889A899A8A9A80
:1001B0008C9A8D9A8E9A8F9A80EA9FE00197F1F738
:1001C000959A949A929A00C0929880EE94E0019742
:1001D000F1F7929A00C0929880E190E0FC0131978B
:1001E000F1F7929A00C09298FC013197F1F7949838
:1001F000929A00C092980197F1F788E28ADF88E02E
:1002000088DFA1DF86E085DF812F83DF1F910895DE
:1002100020E030EC42EA54E422D116D220E030E073
:1002200080E005C0482F4A95F1F72F5F3F4F261712
:100230003707C4F30895DF92EF92FF920F931F9355
:10024000CF93DF938FEF87BB14BADD248CE0ABDF55
:1002500080E690E090DF82E790E08DDF83B3E82FC7
:10026000F0E0E170F07083B3C82FD0E0C270D070BE
:1002700083B3682F70E064707070EE2480919400F6
:1002800090919500E817F90711F4EE24E39430E01B
:100290008091960090919700C817D90709F431E032
:1002A0008E2D8323482F50E000E010E080918A00DB
:1002B00090918B006817790711F401E010E0CA01F2
:1002C00080239123892BD1F080917E0088BB80E030
:1002D00090E02D2D2A95F1F701962AE08C329207B5
:1002E000C1F78091800088BB80E090E02D2D2A9599
:1002F000F1F7019625E086319207C1F7A0E0B0E062
:1003000080919800909199006817790711F4A1E005
:10031000B0E04A235B23452B19F08091820088BB13
:10032000FF248091860090918700E817F90711F467
:10033000FF24F3943F21632F70E0CB018A239B239A
:10034000892BD1F080917E0088BB80E090E02D2D3C
:100350002A95F1F701962AE08C329207C1F7809135
:10036000800088BB80E090E02D2D2A95F1F7019662
:1003700025E086319207C1F730E0809188009091A6
:100380008900C817D90709F431E0E3224E2D50E067
:10039000CA018A239B23892BD1F080917E0088BBE0
:1003A00080E090E02D2D2A95F1F701962AE08C321D
:1003B0009207C1F78091840088BB80E090E02D2DEA
:1003C0002A95F1F7019625E086319207C1F740237F
:1003D0005123452BD1F080917E0088BB80E090E0D6
:1003E0002D2D2A95F1F701962AE08C329207C1F75C
:1003F0008091840088BB80E090E02D2D2A95F1F754
:10040000019625E086319207C1F7F3228F2D90E007
:100410008A239B23892B19F08091820088BB60235B
:100420007123672B09F412CF80917E0088BB80E096
:1004300090E02D2D2A95F1F701962AE08C32920753
:10044000C1F78091800088BB80E090E02D2D2A9537
:10045000F1F7019625E086319207C1F7F7CEA0E2C9
:10046000B0E0E4E3F2E08EC269837A838B839C83FD
:100470002D833E834F835887CE010196BE01675F6F
:100480007F4F08D2CE010596BE016F5E7F4F02D22C
:100490009985923088F089898230C8F0943019F4B7
:1004A000823051F404C0843029F4923081F48CE815
:1004B00090E0C6C0923049F420E09A858A8998136A
:1004C00021E02A87CE010996BBC0823049F420E0A2
:1004D0009A858A89981321E02A8BCE014196B0C073
:1004E0002D843E844F8458886D887E888F88988CB0
:1004F000EE24FF248701AA24BB24650140E050E0DC
:1005000060E070E0E0E0F0E0C10181709070892B64
:10051000E9F0E60CF71C081D191D9A01AB012A0D24
:100520003B1D4C1D5D1D80E090E0A0E0B0E0E614B6
:10053000F7040805190520F481E090E0A0E0B0E0A0
:10054000BA01A901480F591F6A1F7B1FAA0CBB1CC7
:10055000CC1CDD1C97FE08C081E090E0A0E0B0E07C
:10056000A82AB92ACA2ADB2A3196E032F10549F0D5
:10057000660C771C881C991C5694479437942794D2
:10058000C3CFFA85EA892B893C898B859C85280F06
:10059000391F2E5F3F4F17C0CA0181709070892BA1
:1005A00061F016950795F794E79480E090E0A0E05D
:1005B000B0E8E82AF92A0A2B1B2B76956795579500
:1005C00047952F5F3F4F77FDE7CF0CC0440F551F76
:1005D000661F771F17FD4160EE0CFF1C001F111FE7
:1005E00021503040403090E0590790E0690790E496
:1005F000790760F32B8F3C8FDB01CA018F779070F6
:10060000A070B07080349105A105B10561F447FD7B
:100610000AC0E114F1040105110529F0405C5F4FA7
:100620006F4F7F4F40781A8EFE1711F081E08A8F4E
:100630004D8F5E8F6F8F78A383E0898FCE014996AF
:1006400054D0A096E2E1BAC1ACE0B0E0E9E2F3E058
:10065000A9C169837A838B839C83CE010196BE01F5
:100660006B5F7F4F17D18D81823061F1823050F105
:10067000843021F48E81882351F12EC02F8138855A
:1006800037FD20C06E812F3131051CF06623F9F053
:1006900023C08EE190E0821B930B29853A854B8520
:1006A0005C8504C056954795379527958A95D2F76E
:1006B0006623B1F050954095309521953F4F4F4FAF
:1006C0005F4F0EC020E030E040E050E009C02FEF67
:1006D0003FEF4FEF5FE704C020E030E040E050E83C
:1006E000B901CA012C96E2E079C1DF92EF92FF9244
:1006F0000F931F93FC01E480F58006811781D18060
:100700008081823048F480E090E0A0E1B0E0E82A07
:10071000F92A0A2B1B2BA5C0843009F49FC0823014
:1007200021F4EE24FF24870105C0E114F104010542
:10073000110519F4E0E0F0E096C0628173819FEF4B
:10074000623879070CF05BC022E83FEF261B370BBD
:100750002A3131052CF020E030E040E050E02AC0A2
:10076000B801A701022E04C0769567955795479565
:100770000A94D2F781E090E0A0E0B0E004C0880FD6
:10078000991FAA1FBB1F2A95D2F70197A109B1098A
:100790008E219F21A023B1230097A105B10521F04F
:1007A00081E090E0A0E0B0E09A01AB01282B392B6A
:1007B0004A2B5B2BDA01C9018F779070A070B07063
:1007C00080349105A105B10539F427FF09C0205CEB
:1007D0003F4F4F4F5F4F04C0215C3F4F4F4F5F4F24
:1007E000E0E0F0E02030A0E03A07A0E04A07A0E413
:1007F0005A0710F0E1E0F0E079018A0127C0603883
:10080000710564F5FB01E158FF4FD801C7018F77EF
:100810009070A070B07080349105A105B10539F4D5
:10082000E7FE0DC080E490E0A0E0B0E004C08FE3FC
:1008300090E0A0E0B0E0E80EF91E0A1F1B1F17FFB2
:1008400005C016950795F794E794319687E01695BD
:100850000795F794E7948A95D1F705C0EE24FF2415
:100860008701EFEFF0E06E2F679566276795902F71
:100870009F77D794DD24D7948E2F8695492F462BCA
:10088000582F5D29B701CA011F910F91FF90EF907A
:10089000DF900895FC01DB01408151812281622FAC
:1008A0006F7770E0221F2227221F9381892F880FE4
:1008B000822B282F30E0991F9927991F11969C931E
:1008C000119721153105A9F54115510561057105EE
:1008D00011F482E037C082E89FEF13969C938E93C9
:1008E00012979A01AB0167E0220F331F441F551F77
:1008F0006A95D1F783E08C930DC0220F331F441FFC
:10090000551F12968D919C911397019713969C9366
:100910008E931297203080E0380780E0480780E40B
:10092000580758F314962D933D934D935C93179766
:1009300008952F3F310579F4411551056105710581
:1009400019F484E08C93089564FF03C081E08C93D4
:1009500012C01C9210C02F57304013963C932E9318
:10096000129783E08C9387E0440F551F661F771F13
:100970008A95D1F7706414964D935D936D937C9333
:10098000179708952F923F924F925F926F927F92A6
:100990008F929F92AF92BF92CF92DF92EF92FF928F
:1009A0000F931F93CF93DF93CDB7DEB7CA1BDB0B3B
:1009B0000FB6F894DEBF0FBECDBF09942A883988E0
:1009C00048885F846E847D848C849B84AA84B984E7
:1009D000C884DF80EE80FD800C811B81AA81B981F3
:1009E000CE0FD11D0FB6F894DEBF0FBECDBFED0107
:0609F0000895F894FFCF0A
:1009F600526F626F73617069656E73496E64696187
:100A06000A00436F6F7264696E61746F720006004C
:100A16000A000900050001000200040000000000B1
:040A260000000000CC
:00000001FF
