:100000000C942A000C9447000C9447000C94470071
:100010000C9447000C9447000C9447000C94470044
:100020000C9447000C9447000C9447000C94470034
:100030000C9447000C9447000C9447000C94470024
:100040000C9447000C9447000C9447000C94470014
:100050000C94470011241FBECFE5D4E0DEBFCDBF16
:1000600010E0A0E6B0E0E8EFF0E002C005900D92ED
:10007000A036B107D9F710E0A0E6B0E001C01D92AC
:10008000A036B107E1F70E9449000C947A000C9465
:1000900000008FEF81BB84BB82BB35E02AE099E092
:1000A00086E04FEF51EE64E0415050406040E1F790
:1000B00000C0000035BB4FEF51EE64E041505040AE
:1000C0006040E1F700C0000025BB4FEF51EE64E057
:1000D000415050406040E1F700C0000095BB4FEF39
:1000E00051EE64E0415050406040E1F700C0000034
:0800F00085BBD7CFF894FFCFC8
:00000001FF
