S00C000050574D312E73726563F3
S11300000C942A000C943C000C943C000C943C008E
S11300100C943C000C943C000C943C000C943C006C
S11300200C943C000C943C000C943C000C943C005C
S11300300C943C000C943C000C943C000C943C004C
S11300400C943C000C943C000C943C000C943C003C
S11300500C943C0011241FBECFE5D4E0DEBFCDBF1D
S113006020E0A0E6B0E001C01D92A436B207E1F79B
S11300700E943E000C9482020C9400008FEF87BB18
S11300808DE783BF20E030E048EC52E460916000EB
S11300907091610080916200909163000E943A0126
S11300A020E030E04FE753E40E941F020E94A201C7
S11300B06CBF12BEC0E0D0E00F2EFAE0EF2EF02DA0
S11300C0F12C00E010E02FC020E030E040E251E4E9
S11300D06091600070916100809162009091630072
S11300E00E94D60060936000709361008093620068
S11300F09093630020E030E048EC52E40E943A011F
S113010020E030E04FE753E40E941F020E94A20166
S11301106CBF2FEF81EE94E0215080409040E1F7D6
S113012000C000002196CA30D10574F2CE2DDF2D17
S113013020E030E040E251E46091600070916100A1
S113014080916200909163000E94D50060936000EA
S113015070936100809362009093630020E030E02C
S113016048EC52E40E943A0120E030E04FE753E4C7
S11301700E941F020E94A2016CBF9FEF21EE84E047
S1130180915020408040E1F700C000002197209763
S113019079F69FEF25EA8EE0915020408040E1F708
S11301A000C00000C02FD12FBECF5058BB27AA27B4
S11301B00ED00BC1FCD030F001D120F031F49F3FC0
S11301C011F41EF4F1C00EF4E095E7FBE7C0E92F4B
S11301D00DD180F3BA17620773078407950718F0E7
S11301E071F49EF525C10EF4E0950B2EBA2FA02DC7
S11301F00B01B90190010C01CA01A0011124FF27D0
S1130200591B99F0593F50F4503E68F11A16F040CA
S1130210A22F232F342F4427585FF3CF46953795C9
S11302202795A795F0405395C9F77EF41F16BA0B8E
S1130230620B730B840BBAF09150A1F0FF0FBB1F3C
S1130240661F771F881FC2F70EC0BA0F621F731F85
S1130250841F48F4879577956795B795F7959E3FE2
S113026008F0B3CF9395880F08F09927EE0F979570
S1130270879508950CD0A9C0A1D040F098D030F053
S113028021F45F3F19F08AC05111D3C08DC0AED0A4
S113029098F39923C9F35523B1F3951B550BBB2749
S11302A0AA2762177307840738F09F5F5F4F220FF6
S11302B0331F441FAA1FA9F333D00E2E3AF0E0E8EF
S11302C030D091505040E695001CCAF729D0FE2F3B
S11302D027D0660F771F881FBB1F261737074807CD
S11302E0AB07B0E809F0BB0B802DBF01FF27935883
S11302F05F4F2AF09E3F510568F050C09AC05F3F9F
S1130300ECF3983EDCF3869577956795B795F7956A
S11303109F5FC9F7880F911D9695879597F9089562
S1130320E1E0660F771F881FBB1F621773078407FE
S1130330BA0720F0621B730B840BBA0BEE1F88F70D
S1130340E09508955BD088F09F5790F0B92F9927D6
S1130350B751A0F0D1F0660F771F881F991F1AF0CC
S1130360BA95C9F712C0B13081F062D0B1E00895F6
S11303705FC0672F782F8827B85F39F0B93FCCF377
S1130380869577956795B395D9F73EF490958095C2
S1130390709561957F4F8F4F9F4F089597F99F6791
S11303A080E870E060E008959FEF80EC08950024F9
S11303B00A941616170618060906089500240A94C6
S11303C012161306140605060895092E0394000C4C
S11303D011F4882352F0BB0F40F4BF2B11F460FFDB
S11303E004C06F5F7F4F8F4F9F4F089557FD905804
S11303F0440F551F59F05F3F71F04795880F97FBE5
S1130400991F61F09F3F79F087950895121613069E
S11304101406551FF2CF4695F1DF08C016161706CD
S11304201806991FF1CF8695710561050894089502
S1130430E894BB2766277727CB0197F908950BD05B
S1130440C4CFB5DF28F0BADF18F0952309F0A6CFA2
S1130450ABCF1124EECFCADFA0F3959FD1F3950F54
S113046050E0551F629FF001729FBB27F00DB11D34
S1130470639FAA27F00DB11DAA1F649F6627B00DC4
S1130480A11D661F829F2227B00DA11D621F739FAD
S1130490B00DA11D621F839FA00D611D221F749FBB
S11304A03327A00D611D231F849F600D211D822F02
S11304B0762F6A2F11249F5750408AF0E1F0882349
S11304C04AF0EE0FFF1FBB1F661F771F881F915056
S11304D05040A9F79E3F510570F060CFAACF5F3F0F
S11304E0ECF3983EDCF3869577956795B795F79589
S11304F0E7959F5FC1F7FE2B880F911D9695879511
S10B050097F90895F894FFCF68
S9030000FC
