:100000000C942A000C943C000C943C000C943C0092
:100010000C943C000C943C000C943C000C943C0070
:100020000C943C000C9483010C943C000C943C0018
:100030000C943C000C943C000C943C000C943C0050
:100040000C943C000C943C000C943C000C949E01DD
:100050000C943C0011241FBECFE5D4E0DEBFCDBF21
:1000600010E0A0E6B0E001C01D92A436B107E1F7B0
:100070000E94B9010C94FA010C940000AC0130917B
:10008000600020E002C02F5F3AE0822F90E08417EA
:100090009507C8F330936000209361000895909114
:1000A000600080E002C08F5F9AE08436E0F3AA9A95
:1000B00080E002C08F5F9AE08436E0F390936000A6
:1000C00080936100AA9808951F93182FAA9895B35A
:1000D00085B382709870892B912F907F892B85BB77
:1000E0000E944F0095B385B382709870892B12954A
:1000F000107F812B85BB0E944F001F9108958FEFC9
:1001000084BB2FE030E008C080E090E00000019662
:100110004CE08C3C9407D1F7215030408FEF2F3FBB
:10012000380791F783E00E9464002DE230E008C0B8
:1001300080E090E0000001964CE08C3C9407D1F701
:10014000215030408FEF2F3F380791F782E00E9417
:1001500064002FE030E008C080E090E000000196ED
:100160004CE08C3C9407D1F7215030408FEF2F3F6B
:10017000380791F7AA9881E00E9464008FE00E94FE
:10018000640082E00E94640080E80E9464002FE026
:1001900030E008C080E090E0000001964CE08C3C2C
:1001A0009407D1F7215030408FEF2F3F380791F758
:1001B00008951F93182F95B385B382709870892B7B
:1001C000912F907F892B85BBA89A0E944F0095B3F1
:1001D00085B382709870892B1295107F812B85BB17
:1001E000A89A0E944F001F910895EF92FF921F93CB
:1001F000CF93DF937C01AA9810E01FC0103119F44F
:1002000080EC0E94640085B395B392708870982B3F
:100210008881807F982B95BBA89A0E944F0085B358
:1002200095B392708870982B88818295807F892BF6
:1002300085BBA89A0E944F001F5FE701C10FD11D27
:1002400088818823D9F6DF91CF911F91FF90EF909D
:10025000089580580E946400089580540E946400AC
:100260000895893029F480E20E94D90080E206C016
:100270008A3021F480E00E942D0108950E94D90067
:100280000895EF92FF920F931F93182F64E60E9438
:10029000C701482F282F30E08CE99FEF289F70017D
:1002A000299FF00C389FF00C1124C701810F911D7C
:1002B0006AE070E00E94D301062F842F805D0E94C7
:1002C0003101802F805D0E943101105D1E0D86EF8F
:1002D0009FEF089F002D1124802F810F0E94310174
:1002E0001F910F91FF90EF9008950AC020E030E039
:1002F00000002F5F3F4F4CE02C3C3407C9F70197BB
:100300000097A1F708951F920F920FB60F92112434
:100310008F93809163008D3330F010926300919A37
:10032000C59AC49AA99A809163008F5F80936300F5
:100330008F910F900FBE0F901F9018951F920F92E4
:100340000FB60F9211248F93809162008F3130F09D
:10035000109262009198C598C498A9988091620003
:100360008F5F809362008F910F900FBE0F901F9050
:1003700018958FEF87BB81BB84BB12BE8FE78CBF04
:1003800089B7836089BF85E083BF7894FFCF991BCD
:1003900079E004C0991F961708F0961B881F7A957C
:1003A000C9F78095089597FB092E07260AD077FD97
:1003B00004D00CD006D000201AF4709561957F4FC0
:1003C0000895F6F7909581959F4F0895AA1BBB1B42
:1003D00051E107C0AA1FBB1FA617B70710F0A61B45
:1003E000B70B881F991F5A95A9F780959095BC0166
:0803F000CD010895F894FFCF40
:00000001FF
