S00C0000575341442E73726563E9
S11300000C942A000C9434000C9434000C943400A6
S11300100C9434000C9434000C9434000C9434008C
S11300200C9434000C9434000C9434000C9434007C
S11300300C9434000C9434000C9434000C9434006C
S11300400C9434000C9434000C9434000C9434005C
S11300500C94340011241FBECFE5D4E0DEBFCDBF25
S11300600E9436000C9469000C9400008FEF84BB4E
S113007081BB15BA80E382BB31E121E292E282E1E5
S113008035BB4FEF59E668E1415050406040E1F71D
S113009000C0000025BB4FEF59E668E141505040D5
S11300A06040E1F700C0000095BB4FEF59E668E1FE
S11300B0415050406040E1F700C0000085BB4FEF65
S11300C059E668E1415050406040E1F700C000004B
S10900D0D7CFF894FFCF26
S9030000FC
