:100000000C942A000C9434000C9434000C943400AA
:100010000C9434000C9434000C9434000C94340090
:100020000C9434000C9434000C9434000C94340080
:100030000C9434000C9434000C9434000C94340070
:100040000C9434000C9434000C9434000C94340060
:100050000C94340011241FBECFE5D4E0DEBFCDBF29
:100060000E9423010C94A2010C940000662311F05D
:10007000909A01C0909891988C9A8D9A8E9A8F9AA6
:10008000979896989598949887FD979A86FD969A52
:1000900085FD959A84FD949A929A00C092989798BB
:1000A00096989598949883FD979A82FD969A81FDEB
:1000B000959A80FD949A929A00C09298949A959AF3
:1000C000969A979A0895882311F0909A01C0909873
:1000D000919A8C988D988E988F98929A00C0849B54
:1000E00002C080E101C080E08599806286998064C9
:1000F00087998068929800C0929A00C08499816024
:10010000859982608699846087998860929808951D
:1001100080E00E94630087FDFBCF00C080E00E946A
:10012000630008951F93182F0E948800812F60E0BC
:100130000E9436001F9108951F93182F0E94880077
:10014000812F61E00E9436001F910895662311F40B
:10015000805801C080540E94920008950E94880037
:1001600090E0089581E00E949200089582E00E944C
:10017000920008951F93182F0E9488001A3049F4A6
:10018000803410F080E001C080E480580E9492002A
:1001900004C0812F61E00E9436001F910895CF9323
:1001A000DF93EC0102C00E94BA0089918823D9F73D
:1001B000DF91CF910895CF93DF93EC0102C00E94AD
:1001C000BA00FE01219684918823C9F7DF91CF916F
:1001D00008951F93182F889A899A8A9A8C9A8D9AD3
:1001E0008E9A8F9A80EA9FE00197F1F7959A949AF8
:1001F000929A00C0929880EE94E00197F1F7929A5B
:1002000000C0929880E190E0FC013197F1F7929A5A
:1002100000C09298FC013197F1F79498929A00C02F
:1002200092980197F1F788E20E94920088E00E947C
:1002300092000E94B20086E00E949200812F0E94EC
:1002400092001F910895CF92DF92EF92FF920F9349
:100250001F93DF93CF9300D000D00F92CDB7DEB7BE
:100260008CE00E94E90080E090E06E010894C11CDF
:10027000D11C27EEE22E28E1F22E8C010F5F1F4FDA
:10028000B6014AE050E00E945D010E94B200C60142
:100290000E94CF000333110511F400E010E0C70104
:1002A0000197F1F7C7010197F1F7C7010197F1F73E
:1002B000C7010197F1F7C801E0CFFB019F01E89466
:1002C0004230C4F04532B4F44A3029F497FB1EF4AE
:1002D000909581959F4F642F77270E948E01805DB6
:1002E0008A330CF0895D8193CB010097A1F716F456
:1002F0005DE251931082C9010C947E01DC01FC0186
:10030000672F71917723E1F7329704C07C916D9349
:1003100070836291AE17BF07C8F30895AA1BBB1B79
:1003200051E107C0AA1FBB1FA617B70710F0A61BF5
:10033000B70B881F991F5A95A9F780959095BC0116
:08034000CD010895F894FFCFF0
:00000001FF
