S025000050574D20284C454420426C696E6B20576974686F75742044656C6179292E7372656392
S11300000C942A000C9434000C9434000C943400A6
S11300100C9434000C9434000C9434000C9434008C
S11300200C9434000C9434000C9434000C9434007C
S11300300C9434000C9434000C9434000C9434006C
S11300400C9434000C9434000C9434000C9434005C
S11300500C94340011241FBECFE5D4E0DEBFCDBF25
S11300600E9436000C947D000C9400008FEF87BB37
S113007018BA85E083BF12BE10E0D0E0C0E0F0E023
S1130080C12EDD2EEC2EFF2E82B78F3F31F42FEFE1
S1130090C21AD20AE20AF20A12BEE2B7AFEFB0E025
S11300A0A70196010E946300DC01CB018E0F911D14
S11300B0A11DB11D8A329241A105B10529F788B36A
S11300C0809588BBDDCF0E946E00A59F900DB49FE4
S11300D0900DA49F800D911D11240895A29FB0013D
S11300E0B39FC001A39F700D811D1124911DB29F68
S11100F0700D811D1124911D0895F894FFCF09
S9030000FC
