S01700004763634170706C69636174696F6E332E7372656359
S11300000C942A000C9434000C9434000C943400A6
S11300100C9434000C9434000C9434000C9434008C
S11300200C9434000C9434000C9434000C9434007C
S11300300C9434000C9434000C9434000C9434006C
S11300400C9434000C9434000C9434000C9434005C
S11300500C94340011241FBECFE5D4E0DEBFCDBF25
S11300600E9436000C9499000C94000080E381BB3C
S11300708FEF84BB12BA8FB581608FBD8FB5806A54
S11300808FBD8EB583608EBD8EB588608EBD59E000
S113009020E030E046E055BBC90199BD88BD9BBD59
S11300A08ABD6FEF71EEE4E061507040E040E1F72B
S11300B000C0000001968F3F910579F799BD88BD76
S11300C09BBD8ABD6FEF71EEE4E061507040E0408B
S11300D0E1F700C00000019788F745BBC90199BD4D
S11300E088BD9BBD8ABD7FEFE1EE64E07150E040C6
S11300F06040E1F700C0000001968F3F910579F759
S113010099BD88BD9BBD8ABD7FEFE1EE64E071506F
S1130110E0406040E1F700C00000019788F78FEFEE
S113012091EEE4E081509040E040E1F700C000002F
S1090130B2CFF894FFCFEA
S9030000FC
