:100000000C942A000C9447000C9447000C94470071
:100010000C9447000C9447000C9447000C94470044
:100020000C9447000C9447000C9447000C94470034
:100030000C9447000C9447000C9447000C94470024
:100040000C9447000C9447000C9447000C94470014
:100050000C94470011241FBECFE5D4E0DEBFCDBF16
:1000600010E0A0E6B0E0E6E4F4E002C005900D92F6
:10007000AA36B107D9F710E0AAE6B0E001C01D9298
:10008000AC36B107E1F70E94B7010C9421020C9441
:1000900000009C0110926B0011C010926A0005C014
:1000A00080916A008F5F80936A0080916A008A3035
:1000B000B8F380916B008F5F80936B0080916B0031
:1000C00090E08217930748F3089510926B0011C0D7
:1000D00010926A0005C080916A008F5F80936A0069
:1000E00080916A008A30B8F380916B008F5F8093B3
:1000F0006B0080916B00843658F3AA9A10926B00C3
:1001000011C010926A0005C080916A008F5F8093D1
:100110006A0080916A008A30B8F380916B008F5F2B
:1001200080936B0080916B00843658F3AA980895F1
:100130001F93182FAA9895B385B382709870892B56
:10014000912F907F892B85BB0E94650095B385B365
:1001500082709870892B1295107F812B85BB0E942D
:1001600065001F9108958FEF84BB2FE030E008C039
:1001700080E090E0000001964CE08C3C9407D1F7C1
:10018000215030408FEF2F3F380791F783E00E94D6
:1001900098002DE230E008C080E090E00000019679
:1001A0004CE08C3C9407D1F7215030408FEF2F3F2B
:1001B000380791F782E00E9498002FE030E008C0F5
:1001C00080E090E0000001964CE08C3C9407D1F771
:1001D000215030408FEF2F3F380791F7AA9881E0E8
:1001E0000E9498008FE00E94980082E00E94980090
:1001F00080E80E9498002FE030E008C080E090E0A6
:10020000000001964CE08C3C9407D1F7215030401F
:100210008FEF2F3F380791F708951F93182F95B34D
:1002200085B382709870892B912F907F892B85BB25
:10023000A89A0E94650095B385B382709870892B47
:100240001295107F812B85BBA89A0E9465001F9193
:100250000895EF92FF921F93CF93DF937C01AA98AA
:1002600010E01FC0103119F480EC0E94980085B393
:1002700095B392708870982B8881807F982B95BB5E
:10028000A89A0E94650085B395B392708870982BE8
:1002900088818295807F892B85BBA89A0E94650002
:1002A0001F5FE701C10FD11D88818823D9F6DF9137
:1002B000CF911F91FF90EF90089580580E94980071
:1002C000089580540E9498000895893029F480E2AE
:1002D0000E940D0180E206C08A3021F480E00E9475
:1002E000610108950E940D010895EF92FF920F930E
:1002F0001F93182F64E60E94EE01482F282F30E04C
:100300008CE99FEF289F7001299FF00C389FF00C1B
:100310001124C701810F911D6AE070E00E94FA016B
:10032000062F842F805D0E946501802F805D0E94D2
:100330006501105D1E0D86EF9FEF089F002D1124B3
:10034000802F810F0E9465011F910F91FF90EF9008
:1003500008950AC020E030E000002F5F3F4F4CE0DE
:100360002C3C3407C9F701970097A1F70895FF9235
:100370000F931F931ABA9FEF91BB94BB3F983E9A7D
:100380003D9A86B1846886B99BBB0E94B30086E221
:10039000F82E05E2F7B8369A3699FECF80E00E9433
:1003A0005D01AB9A15B107B9369A3699FECF80E058
:1003B0000E946101AB9A25B1812F90E0803B9105AD
:1003C0004CF3822F90E08436910524F780E00E9460
:1003D0005D0180E690E00E942901DCCF991B79E065
:1003E00004C0991F961708F0961B881F7A95C9F7C5
:1003F0008095089597FB092E07260AD077FD04D033
:100400000CD006D000201AF4709561957F4F0895A6
:10041000F6F7909581959F4F0895AA1BBB1B51E15C
:1004200007C0AA1FBB1FA617B70710F0A61BB70B64
:10043000881F991F5A95A9F780959095BC01CD0109
:060440000895F894FFCFBF
:0A044600746F70206C65667400008E
:00000001FF
