S02200004144432028436F6E74726F6C20436865636B696E6720212121292E7372656329
S11300000C942A000C9434000C9434000C943400A6
S11300100C9434000C9434000C9434000C9434008C
S11300200C9434000C9434000C9434000C9434007C
S11300300C9434000C9434000C9434000C9434006C
S11300400C9434000C9434000C9434000C9434005C
S11300500C94340011241FBECFE5D4E0DEBFCDBF25
S11300600E9436000C945E000C9400008FEF87BB56
S11300701ABA18BA87E886B980E487B951E047E02C
S11300803FE02FE1369A84B195B1853363E096075A
S113009014F028BBF7CF883662E0960714F038BB1B
S11300A0F1CF8B3961E0960714F048BBEBCF8E3C5F
S11300B0910514F058BBE6CF58BBE4CFF894FFCFBA
S9030000FC
