:1000000012C024C023C022C021C020C01FC01EC0F7
:100010001DC01CC01BC01AC019C018C017C016C014
:1000200015C014C013C011241FBECFE5D4E0DEBF3D
:10003000CDBF10E0A0E6B0E0E2E4F6E002C005903B
:100040000D92A836B107D9F715D0F9C2D9CF20E063
:1000500030EC42EA54E429D01DD120E030E080E0C9
:1000600005C0482F4A95F1F72F5F3F4F26173707F6
:10007000C4F308958FEF81BB4FEF30E042BB80E0C7
:1000800090E0232F2A95F1F7019622E08B38920712
:10009000C1F712BA80E090E0232F2A95F1F701967C
:1000A00022E08B389207C1F7E9CFA0E2B0E0EAE5A1
:1000B000F0E08EC269837A838B839C832D833E8399
:1000C0004F835887CE010196BE01675F7F4F08D2EC
:1000D000CE010596BE016F5E7F4F02D299859230A8
:1000E00088F089898230C8F0943019F4823051F454
:1000F00004C0843029F4923081F480E690E0C6C0D8
:10010000923049F420E09A858A89981321E02A8761
:10011000CE010996BBC0823049F420E09A858A89D5
:10012000981321E02A8BCE014196B0C02D843E84E5
:100130004F8458886D887E888F88988CEE24FF24A1
:100140008701AA24BB24650140E050E060E070E034
:10015000E0E0F0E0C10181709070892BE9F0E60CDD
:10016000F71C081D191D9A01AB012A0D3B1D4C1DE2
:100170005D1D80E090E0A0E0B0E0E614F704080523
:10018000190520F481E090E0A0E0B0E0BA01A901F7
:10019000480F591F6A1F7B1FAA0CBB1CCC1CDD1CFF
:1001A00097FE08C081E090E0A0E0B0E0A82AB92A5C
:1001B000CA2ADB2A3196E032F10549F0660C771C39
:1001C000881C991C5694479437942794C3CFFA857A
:1001D000EA892B893C898B859C85280F391F2E5FE6
:1001E0003F4F17C0CA0181709070892B61F016953E
:1001F0000795F794E79480E090E0A0E0B0E8E82A63
:10020000F92A0A2B1B2B76956795579547952F5FF3
:100210003F4F77FDE7CF0CC0440F551F661F771F78
:1002200017FD4160EE0CFF1C001F111F21503040D4
:10023000403090E0590790E0690790E4790760F357
:100240002B8F3C8FDB01CA018F779070A070B0704C
:1002500080349105A105B10561F447FD0AC0E114A0
:10026000F1040105110529F0405C5F4F6F4F7F4F8E
:1002700040781A8EFE1711F081E08A8F4D8F5E8FC5
:100280006F8F78A383E0898FCE01499654D0A096D2
:10029000E2E1BAC1ACE0B0E0EFE4F1E0A9C169830A
:1002A0007A838B839C83CE010196BE016B5F7F4F67
:1002B00017D18D81823061F1823050F1843021F488
:1002C0008E81882351F12EC02F81388537FD20C0C3
:1002D0006E812F3131051CF06623F9F023C08EE1C9
:1002E00090E0821B930B29853A854B855C8504C081
:1002F00056954795379527958A95D2F76623B1F09D
:1003000050954095309521953F4F4F4F5F4F0EC010
:1003100020E030E040E050E009C02FEF3FEF4FEF2A
:100320005FE704C020E030E040E050E8B901CA01D6
:100330002C96E2E079C1DF92EF92FF920F931F9328
:10034000FC01E480F58006811781D18080818230B4
:1003500048F480E090E0A0E1B0E0E82AF92A0A2B16
:100360001B2BA5C0843009F49FC0823021F4EE24F9
:10037000FF24870105C0E114F1040105110519F4FA
:10038000E0E0F0E096C0628173819FEF6238790708
:100390000CF05BC022E83FEF261B370B2A313105FA
:1003A0002CF020E030E040E050E02AC0B801A70186
:1003B000022E04C076956795579547950A94D2F713
:1003C00081E090E0A0E0B0E004C0880F991FAA1F70
:1003D000BB1F2A95D2F70197A109B1098E219F2150
:1003E000A023B1230097A105B10521F081E090E0A1
:1003F000A0E0B0E09A01AB01282B392B4A2B5B2BF4
:10040000DA01C9018F779070A070B07080349105C7
:10041000A105B10539F427FF09C0205C3F4F4F4FBC
:100420005F4F04C0215C3F4F4F4F5F4FE0E0F0E073
:100430002030A0E03A07A0E04A07A0E45A0710F0F5
:10044000E1E0F0E079018A0127C06038710564F5C8
:10045000FB01E158FF4FD801C7018F779070A07062
:10046000B07080349105A105B10539F4E7FE0DC0E7
:1004700080E490E0A0E0B0E004C08FE390E0A0E072
:10048000B0E0E80EF91E0A1F1B1F17FF05C01695E6
:100490000795F794E794319687E016950795F794BA
:1004A000E7948A95D1F705C0EE24FF248701EFEF8A
:1004B000F0E06E2F679566276795902F9F77D7940A
:1004C000DD24D7948E2F8695492F462B582F5D29F2
:1004D000B701CA011F910F91FF90EF90DF9008952F
:1004E000FC01DB01408151812281622F6F7770E036
:1004F000221F2227221F9381892F880F822B282FCA
:1005000030E0991F9927991F11969C9311972115F7
:100510003105A9F5411551056105710511F482E018
:1005200037C082E89FEF13969C938E9312979A019F
:10053000AB0167E0220F331F441F551F6A95D1F7A7
:1005400083E08C930DC0220F331F441F551F12965A
:100550008D919C911397019713969C938E9312976C
:10056000203080E0380780E0480780E4580758F3DF
:1005700014962D933D934D935C93179708952F3FB9
:10058000310579F4411551056105710519F484E0CF
:100590008C93089564FF03C081E08C9312C01C9279
:1005A00010C02F57304013963C932E93129783E040
:1005B0008C9387E0440F551F661F771F8A95D1F7EC
:1005C000706414964D935D936D937C931797089583
:1005D0002F923F924F925F926F927F928F929F9253
:1005E000AF92BF92CF92DF92EF92FF920F931F9341
:1005F000CF93DF93CDB7DEB7CA1BDB0B0FB6F894F2
:10060000DEBF0FBECDBF09942A88398848885F8431
:100610006E847D848C849B84AA84B984C884DF80A2
:10062000EE80FD800C811B81AA81B981CE0FD11D86
:100630000FB6F894DEBF0FBECDBFED010895F8945C
:02064000FFCFEA
:080642000000000000000000B0
:00000001FF
