:100000000C942A000C9447000C9456000C94470062
:100010000C9447000C9447000C9447000C94470044
:100020000C9447000C9447000C9447000C94470034
:100030000C9447000C9447000C9447000C94470024
:100040000C9447000C9447000C9447000C94470014
:100050000C94470011241FBECFE5D4E0DEBFCDBF16
:1000600010E0A0E6B0E0ECEEF0E002C005900D92EA
:10007000A036B107D9F710E0A0E6B0E001C01D92AC
:10008000A036B107E1F70E9449000C9474000C946B
:1000900000008BB780688BBF85B78C6085BF8FEF02
:1000A00087BB11BA88E082BB7894FFCF1F920F9272
:1000B0000FB60F9211248F939F93AF93BF9388B382
:1000C000809588BB8FEF90E7A2E081509040A040E0
:1000D000E1F700C00000BF91AF919F918F910F9009
:0C00E0000FBE0F901F901895F894FFCFF2
:00000001FF
